:020000040000FA
:06000000C7EF10F0120032
:0A0006000100C82100008000000086
:040010007300000079
:0C001400D9CFE6FFE1CFD9FF100EE126A6
:10002000DF6A01DAE66A78EC08F0E552E00EE66E87
:10003000930EE66E040EE66EE66A65EC05F0E55298
:10004000E552E552E552300EE66E89EC05F0E552D8
:10005000DDEC05F0A30EE66E000EE66EEDEC05F0AD
:10006000E552E552080EE66ECFEC05F0E552B40E0F
:10007000E66E000EE66EEDEC05F0E552E552180E68
:10008000E66ECFEC05F0E552C30EE66E000EE66EAE
:10009000EDEC05F0E552E55281B0FED781A0FED728
:1000A0004CEC05F0DDEC05F0010EE66ECFEC05F052
:1000B000E552D30EE66E000EE66EEDEC05F0E5526D
:1000C000E552110EE66ECFEC05F0E552E30EE66E5A
:1000D000000EE66EEDEC05F0E552E552E66ACFEC77
:1000E00005F0E552100EE66EACEC05F0E5520C0E94
:1000F000DB6A0D0EDB6A81B048D081A0FED70C0E02
:10010000DB2A0D0E01E3DB2AD9500C0FE96EDACFA2
:10011000EAFF010ED880EE54000EED5404E20C0EFE
:10012000DB6A0D0EDB6AD9500C0FE96EDACFEAFFFD
:10013000010EEE1801E1ED5014E1E66ACFEC05F096
:10014000E552200EE66EACEC05F0E552100EE66EC0
:10015000CFEC05F0E552100EE66EACEC05F0E55282
:1001600013D0E66ACFEC05F0E552100EE66EACEC6B
:1001700005F0E552100EE66ECFEC05F0E552200ECC
:10018000E66EACEC05F0E55243D181B241D181A2DB
:10019000FED7DDEC05F03FEC09F0C20ED76EF60E8F
:1001A000D66ED58EF2A418D0F250040B02E0000EE9
:1001B00001D0010EC20ED76EF60ED66ED9500C0FBE
:1001C000E96EDACFEAFF010EEE1801E1ED5002E12F
:1001D00077DA01D084D9DF2A0A0EDF5C01E017D17B
:1001E00080C014F081C015F0166A176A8AC006F044
:1001F0008BC007F08CC008F08DC009F014C00BF064
:1002000015C00CF016C00DF017C00EF0DCEC0FF0AE
:100210000934000E091809E6D8803C0E0654000E79
:100220000754000E0854000E095470E380C018F003
:1002300081C019F01A6A1B6A8AC006F08BC007F0E9
:100240008CC008F08DC009F018C00BF019C00CF07C
:100250001AC00DF01BC00EF0DCEC0FF0D880095076
:10026000FF0A08E6C40E065CFF0E0758FF0E08588A
:10027000FF0E09584BE380C01CF081C01DF01E6AC0
:100280001F6A8EC006F08FC007F090C008F091C0C2
:1002900009F01CC00BF01DC00CF01EC00DF01FC0FB
:1002A0000EF0DCEC0FF00934000E091809E6D880D6
:1002B0001C0E0654000E0754000E0854000E09547C
:1002C00025E380C020F081C021F0226A236A8EC01D
:1002D00006F08FC007F090C008F091C009F020C070
:1002E0000BF021C00CF022C00DF023C00EF0DCECAE
:1002F0000FF0D8800950FF0A08E6E40E065CFF0EF6
:100300000758FF0E0858FF0E095823E2010EE66E4B
:1003100078EC08F0E552E00EE66E930EE66E040E01
:10032000E66EE66AD2DBE552E552E552E552020E90
:10033000E66E78EC08F0E552E00EE66E930EE66E9F
:10034000040EE66EE66AC1DBE552E552E552E5527F
:10035000FFD780C018F081C019F01A6A1B6A8EC0DE
:1003600006F08FC007F090C008F091C009F018C0E7
:100370000BF019C00CF01AC00DF01BC00EF0DCEC35
:100380000FF006C014F007C015F008C016F009C041
:1003900017F01C0E1426000E15221622172214C068
:1003A000E6FF15C0E6FF3C0E206E216A226A236A32
:1003B00080C024F081C025F0266A276A8AC006F032
:1003C0008BC007F08CC008F08DC009F024C00BF082
:1003D00025C00CF026C00DF027C00EF0DCEC0FF0AD
:1003E0000650205C1C6E075021581D6E0850225884
:1003F0001E6E095023581F6E1CC0E6FF1DC0E6FF8D
:1004000027EC06F0E552E552E552E552DF6ACAD61E
:1004100072D6100EE15C02E2E16AE552E16EE5524D
:10042000E7CFD9FF1200956A946A030E936E3F0ED0
:10043000926EC30EC16E040ED56ECB68CA6E0C0EE2
:10044000BD6EBA6E8B988B88A00EE66E860EE66E39
:10045000010EE66EE66A39DBE552E552E552E552F9
:100460008B86300EE66E55DBE552A7DB020EE66E9C
:1004700050DBE552060EE66E4CDBE5520C0EE66EE6
:1004800048DBE552340EE66E44DBE552020EE66EC2
:1004900040DBE552040EE66E3CDBE552300EE66EC4
:1004A00038DBE5528ADB320EBE6E12008B80100EF6
:1004B000E66E270EE66EE66AE66A07DBE552E5526F
:1004C000E552E5528B90100EE66E270EE66EE66A58
:1004D000E66AFBDAE552E552E552E5521200810E7A
:1004E000E66E17DAE552F3CF00F1F4CF01F1890E91
:1004F000E66E0FDAE552F3CF02F1F4CF03F101011A
:100500000851005F0951015B0A51025F0B51035B07
:1005100000C118F001C119F01A6A1B6A19AE02D0A5
:100520001A681B6818500001925D146E1950935997
:10053000156E1A509459166E1B509559176E010E70
:10054000141805E1155003E1165001E117501FE0A2
:1005500000C120F001C121F0226A236A21AE02D03D
:10056000226823689251205C1C6E935121581D6EA5
:10057000945122581E6E955123581F6E010E1C185F
:1005800005E11D5003E11E5001E11F5003E101018F
:10059000006B016B02C118F003C119F01A6A1B6AE3
:1005A00019AE02D01A681B6818500001965D146ECF
:1005B00019509759156E1A509859166E1B50995923
:1005C000176E010E141805E1155003E1165001E1F4
:1005D000175022E002C120F003C121F0226A236AF1
:1005E00021AE02D0226823682050965D1C6E2150F7
:1005F00097591D6E225098591E6E235099591F6E9F
:10060000E8681C1808E1E8681D1805E1E8681E188C
:1006100002E1E8681F1803E10101026B036B00C1EE
:1006200014F001C115F0020E0D6E0E6A14C008F030
:1006300015C009F0B6EC0FF008C014F009C015F0B1
:10064000166A176A15AE02D01668176814500001B2
:10065000822715508323165084231750852302C107
:1006600014F003C115F0020E0D6E0E6A14C008F0EE
:1006700015C009F0B6EC0FF008C014F009C015F071
:10068000166A176A15AE02D0166817681450000172
:1006900086271550872316508823175089238251A7
:1006A0008A2783518B2384518C2385518D23865136
:1006B0008E2787518F2388519023895191231200CF
:1006C000810EE66E26D9E552F3CF00F1F4CF01F1A9
:1006D000890EE66E1ED9E552F3CF02F1F4CF03F195
:1006E00001010851005F0951015B0A51025F0B5182
:1006F000035B00C118F001C119F01A6A1B6A19AE38
:1007000002D01A681B6818500001925D146E1950CF
:100710009359156E1A509459166E1B509559176EB1
:10072000010E141805E1155003E1165001E11750B0
:100730001FE000C120F001C121F0226A236A21AE2E
:1007400002D0226823689251205C1C6E935121587C
:100750001D6E945122581E6E955123581F6E010E26
:100760001C1805E11D5003E11E5001E11F5003E17B
:100770000101006B016B02C118F003C119F01A6A84
:100780001B6A19AE02D01A681B6818500001965DEA
:10079000146E19509759156E1A509859166E1B50B1
:1007A0009959176E010E141805E1155003E1165002
:1007B00001E1175022E002C120F003C121F0226ABA
:1007C000236A21AE02D0226823682050965D1C6EF9
:1007D000215097591D6E225098591E6E23509959D9
:1007E0001F6EE8681C1808E1E8681D1805E1E86854
:1007F0001E1802E1E8681F1803E10101026B036B98
:1008000000C114F001C115F0020E0D6E0E6A14C085
:1008100008F015C009F0B6EC0FF008C014F009C0DC
:1008200015F0166A176A15AE02D0166817681450CC
:1008300000018227155083231650842317508523E7
:1008400002C114F003C115F0020E0D6E0E6A14C041
:1008500008F015C009F0B6EC0FF008C014F009C09C
:1008600015F0166A176A15AE02D01668176814508C
:100870000001862715508723165088231750892397
:100880008535000E851909E6D880000E8255000EC8
:100890008355000E8455000E855506E28207000E32
:1008A000835B845B855B08D0800E851505E0822B19
:1008B000000E8323842385238935000E891909E6D8
:1008C000D880000E8655000E8755000E8855000E04
:1008D000895506E28607000E875B885B895B08D036
:1008E000800E891505E0862B000E87238823892337
:1008F00082518A2783518B2384518C2385518D23E8
:1009000086518E2787518F238851902389519123B7
:100910001200D9CFE6FFE1CFD9FF0A0EE126060E7D
:10092000DB6A070EDB6A080EDB6A090EDB6AFE0E65
:10093000DB50C26EE80EE66E030EE66EE66AE66A0D
:10094000C4D8E552E552E552E552140EDE6EDD6A7A
:10095000D9CFE9FFDACFEAFF000ED880EE54000EBF
:10096000ED5465E2C284C2B4FED7020EC4CFDBFFF1
:10097000030EDB6A040EDB6A050EDB6A020EDBCFB8
:1009800014F0030EDBCF15F0040EDBCF16F0050ECE
:10099000DBCF17F0080E1F0B07E0D8901436153682
:1009A00016361736E806F9E1020E14C0DBFF030E17
:1009B00015C0DBFF040E16C0DBFF050E17C0DBFF02
:1009C000C350146E156A166A176AD950020FE96E81
:1009D000DACFEAFFEE501412EE501512EE50161256
:1009E000EE501712020E14C0DBFF030E15C0DBFF22
:1009F000040E16C0DBFF050E17C0DBFFD950060F33
:100A0000E96EDACFEAFF020EDB50EE26030EDB5072
:100A1000EE22040EDB50EE22050EDB50EE22D9CF83
:100A2000E9FFDACFEAFFEE06000EED5A91D7060E87
:100A3000DBCF06F0070EDBCF07F0080EDBCF08F0A8
:100A4000090EDBCF09F0140E0B6E0C6A0D6A0E6AEC
:100A50007DEC10F0020E06C0DBFF030E07C0DBFFCB
:100A6000040E08C0DBFF050E09C0DBFFC290020EBA
:100A7000DBCF14F0030EDBCF15F014C0F3FF15C06D
:100A8000F4FF0A0EE15C03E200D0E16AE552E16E98
:100A9000E552E7CFD9FF1200810EE66E3ADFE5524C
:100AA000F3CF08F1F4CF09F1890EE66E32DFE5529B
:100AB000F3CF0AF1F4CF0BF1910EE66E2ADFE55287
:100AC000F3CF0CF1F4CF0DF11200D9CFE6FFE1CF57
:100AD000D9FFD950FB0FE96EFF0EDA20EA6ED880FD
:100AE000000EEE54000EEE54000EEE54000EEE54C6
:100AF0000CE2D950FB0FE96EFF0EDA20EA6EEE062B
:100B0000000EEE5AEE5AEE5AE4D7E552E7CFD9FF7F
:100B10001200D9CFE6FFE1CFD9FF8B9C8B9AFE0E56
:100B2000DB508C6E8B8E140EE66EE66AE66AE66A21
:100B3000CCDFE552E552E552E5528B9E140EE66E8F
:100B4000E66AE66AE66AC1DFE552E552E552E55239
:100B5000E552E7CFD9FF1200D9CFE6FFE1CFD9FFA9
:100B60008B9C8B8AFE0EDB508C6E8B8E140EE66E89
:100B7000E66AE66AE66AA9DFE552E552E552E55221
:100B80008B9E140EE66EE66AE66AE66A9EDFE55222
:100B9000E552E552E552E552E7CFD9FF1200D9CF31
:100BA000E6FFE1CFD9FFFE0EDB50800FE66EB1DF2E
:100BB000E552E552E7CFD9FF1200010EE66EA9DF3C
:100BC000E552580EE66E020EE66EE66AE66A7DDFD4
:100BD000E552E552E552E5521200D9CFE6FFE1CFEA
:100BE000D9FFE652DF6AD950FD0FE96EFF0EDA2019
:100BF000EA6EEE50ED1016E0FD0EDBCFE9FFFE0EC3
:100C0000DBCFEAFFEF500EE0FD0EDBCFE9FFDB2A82
:100C1000FE0EDBCFEAFF01E3DB2AEF50E66E9CDF3E
:100C2000E552E1D7E552E552E7CFD9FF1200D9CF1F
:100C3000E6FFE1CFD9FFFE0EDB50040DF350300983
:100C4000E66E67DFE552E552E7CFD9FF1200D9CF54
:100C5000E6FFE1CFD9FF020EE12610C109F0100E28
:100C60000E6E9CEC0FF005C014F0080EE76E141821
:100C7000E8AE02D0E73402D0E750145C32E2010E55
:100C8000DB6ADBCF14F0080EE76E1418E8AE02D072
:100C9000E73402D0E750145C23E2010EDB5001017F
:100CA0001125146E14C009F0400E0E6E9CEC0FF06E
:100CB0000550E66E100E156E15C00EF010C109F04D
:100CC0009CEC0FF00950E66EE8D9E552E552E66A71
:100CD00043DFE552E66A40DFE552010EDB2AD1D759
:100CE00048D0010EDB6ADBCF14F0080EE76E141853
:100CF000E8AE02D0E73402D0E750145C3AE2010ECD
:100D0000DB5001011125146E14C009F0400E0E6E67
:100D10009CEC0FF00550E66E100E156E15C00EF02F
:100D200010C109F09CEC0FF00950E66EB6D9E552FF
:100D3000E552E66A11DFE552E66A0EDFE552100E73
:100D4000146E14C00EF010C109F09CEC0FF00950A5
:100D5000070809E1010EDB5001011125E66EE66A84
:100D60009CD9E552E552E66AF7DEE552010EDB2A30
:100D7000BAD7FD0EDBCF14F0FE0EDBCF15F0100E50
:100D80000D6E0E6A14C008F015C009F0B6EC0FF035
:100D900004C014F005C015F0D890155004E6080EF4
:100DA000145C000E155801E39DD0010EDB6ADBCF09
:100DB00014F0080EE76E1418E8AE02D0E73402D043
:100DC000E750145C01E38DD0010EDBCF16F0176AFB
:100DD00016BE1768FB0EDB501624146EFC0EDB509B
:100DE0001720156E400E0D6E0E6A14C008F015C067
:100DF00009F0B6EC0FF004C014F005C015F0145063
:100E0000E66E100E186E196AFD0EDBCF08F0FE0EAE
:100E1000DBCF09F018C00DF019C00EF0B6EC0FF0E2
:100E20000850E66E3AD9E552E552FD0EDBCF14F0DC
:100E3000FE0EDBCF15F0080E0D6E0E6A14C008F022
:100E400015C009F0B6EC0FF004C014F005C015F0A1
:100E5000010EDBCFF6FFF76AF6BEF768300EF62616
:100E60001F0EF7220800F55014C0E7FFE75204E018
:100E7000E8427F0BE706FCE1E66E6EDEE552FD0E12
:100E8000DBCF14F0FE0EDBCF15F0080E0D6E0E6AF0
:100E900014C008F015C009F0B6EC0FF004C014F04F
:100EA00005C015F0080ED8801456000E1556010E18
:100EB000DBCFF6FFF76AF6BEF768300EF6261F0E98
:100EC000F7220800F55014C0E7FFE75204E0E846B7
:100ED000FE0BE706FCE1E66E3FDEE552010EDB2A83
:100EE00066D7CBD0010EDB6ADBCF14F0080EE76EBD
:100EF0001418E8AE02D0E73402D0E750145C01E3E6
:100F0000BCD0010EDBCF16F0176A16BE1768FB0EB9
:100F1000DB501624146EFC0EDB501720156E400EAD
:100F20000D6E0E6A14C008F015C009F0B6EC0FF093
:100F300004C014F005C015F01450E66E100E186EC3
:100F4000196AFD0EDBCF08F0FE0EDBCF09F018C0EA
:100F50000DF019C00EF0B6EC0FF00850E66E9DD8FB
:100F6000E552E552E66AF8DDE552FD0EDBCF14F0FE
:100F7000FE0EDBCF15F0080E0D6E0E6A14C008F0E1
:100F800015C009F0B6EC0FF004C014F005C015F060
:100F9000010EDBCFF6FFF76AF6BEF768300EF626D5
:100FA0001F0EF7220800F55014C0E7FFE75204E0D7
:100FB000E8427F0BE706FCE1E66ECEDDE552FD0E72
:100FC000DBCF14F0FE0EDBCF15F0100E0D6E0E6AA7
:100FD00014C008F015C009F0B6EC0FF008C014F00A
:100FE00009C015F0070E141801E1155014E1010EA7
:100FF000DBCF16F0176A16BE1768FB0EDB501624FF
:10100000146EFC0EDB501720156E1450E66EE66A67
:1010100044D8E552E552FD0EDBCF14F0FE0EDBCFD7
:1010200015F0080E0D6E0E6A14C008F015C009F018
:10103000B6EC0FF004C014F005C015F0080ED8800F
:101040001456000E1556010EDBCFF6FFF76AF6BEFA
:10105000F768300EF6261F0EF7220800F55014C070
:10106000E7FFE75204E0E846FE0BE706FCE1E66E28
:1010700073DDE552010EDB2A37D7FD0EDBCF10F111
:10108000FB0EDBCF11F1020EE15C02E2E16AE552F8
:10109000E16EE552E7CFD9FF1200D9CFE6FFE1CFED
:1010A000D9FF200EF36EFD0EDBCFF4FFF350F45C9E
:1010B0000FE3FD0EDB50800FE00FE66E2ADDE552F8
:1010C000FE0EDB50800F080FE66E23DDE5520CD0DC
:1010D000FD0EDB50800FE66E1CDDE552FE0EDB5090
:1010E000800FE66E16DDE552E552E7CFD9FF12001C
:1010F000D9CFE6FFE1CFD9FF060EE1263C0EE66E22
:1011000008DDE552800EF36E040EF3CFDBFF050E13
:10111000DB6A020EDB6A030EDB6A020EDBCF14F021
:10112000030EDBCF15F0200E145C000E155801E302
:1011300098D0040EDBCF14F0DB2A050EDBCF15F0C0
:1011400001E3DB2A1450E66EE4DCE552800EE66E25
:10115000E0DCE552DE6ADD6ADECF14F0DDCF15F0AB
:10116000100E145C000E155832E2FE0EDBCF14F0A8
:10117000156A14BE15680A0ED89014361536E8069E
:10118000FBE1300E1426130E1522020EDBCF18F0F1
:10119000030EDBCF19F0040ED89018361936E80686
:1011A000FBE1DE501824166EDD501920176E145026
:1011B0001624F66E15501720F76E0800F550E66EEF
:1011C000CBDCE552DF2A010E01E3DB2AC5D7DE6A5C
:1011D000DD6ADECF14F0DDCF15F0100E145C000ECA
:1011E000155839E2FE0EDBCF14F0156A14BE1568EF
:1011F0000A0ED89014361536E806FBE1300E142698
:10120000130E1522DECF18F0DDCF19F0000E1826D0
:10121000020E1922100E086E096A020EDBCF0DF0C5
:10122000030EDBCF0EF010EC10F018500624166EF3
:1012300019500720176E14501624F66E15501720FB
:10124000F76E0800F550E66E87DCE552DF2A010EE6
:1012500001E3DB2ABED7020EDB2A030E01E3DB2A01
:101260005CD73E0EE66E55DCE552060EE15C02E20E
:10127000E16AE552E16EE552E7CFD9FF1200D9CF1E
:10128000E6FFE1CFD9FF060EE1263C0EE66E41DC1B
:10129000E552800EF36E040EF3CFDBFF050EDB6A22
:1012A000020EDB6A030EDB6A020EDBCF14F0030EC4
:1012B000DBCF15F0200E145C000E15582AE2040E48
:1012C000DBCF14F0DB2A050EDBCF15F001E3DB2AC0
:1012D0001450E66E1EDCE552800EE66E1ADCE55216
:1012E000DE6ADD6ADECF14F0DDCF15F0200E145C6F
:1012F000000E155808E2E66A2FDCE552DF2A010EDF
:1013000001E3DB2AEFD7020EDB2A030E01E3DB2A1F
:10131000CBD73E0EE66E89EC05F0E552060EE15C99
:1013200002E2E16AE552E16EE552E7CFD9FF120031
:1013300000000000000000000000000000000000AD
:10134000000000000000000000000000000000009D
:10135000000000000000000000000000000000008D
:10136000000000000000000000000000000000007D
:10137000000000000000000000000000000000006D
:10138000000000000000000000000000000000005D
:10139000000000000000000000000000000000004D
:1013A000000000000000000000000000000000003D
:1013B000000000000000000000000000000000002D
:1013C000000000000000000000000000000000001D
:1013D000000000000000000000000000000000000D
:1013E00000000000000000000000000000000000FD
:1013F00000000000000000000000000000000000ED
:1014000000000000000000000000000000000000DC
:1014100000000000000000000000000000000000CC
:1014200000000000000000000000000000000000BC
:1014300000000000000000000000000000000000AC
:10144000000000000000000000000000000000009C
:10145000000000000000000000000000000000008C
:10146000000000000000000000000000000000007C
:10147000000000000000000000000000000000006C
:10148000000000000000000000000000000000005C
:10149000000000000000000000000000000000004C
:1014A000000000000000000001FE0000000000003D
:1014B00000000000000000000003FE00000000002B
:1014C000000000000000000000003FC0000000001D
:1014D000000000003F800180000003FE00000000CB
:1014E000000000007F800380000001FF000000007A
:1014F00000000000F38007000000003C40000000F6
:1015000000000001C3B8FFBF3E1FC00E0000000076
:10151000000000038039DFBEFE3FC00780000000EE
:10152000000000038039DFBEFE3FC00380000000E2
:1015300000000003803B9E71C239C00180000000A2
:1015400000000003843F9C61C639C001C000000058
:10155000000000038F3E3CE186738001C000000064
:1015600000000003FE3C3EC1FE638001C00000009D
:1015700000000001FC3C3EC1FEE38001C000000011
:1015800000000000F8381DC0F9E7000380000000EB
:10159000000000000038000000000007000000000C
:1015A0000000000001F00000000000180000000032
:1015B0000000000001E00000000000380000000012
:1015C0000000000000000000000003800000000098
:1015D000000000000000000000001E0000000000ED
:1015E00000000000000000000000000000000000FB
:1015F00000000000000000000000000000000000EB
:1016000000000000000000000000000000000000DA
:1016100000000000000000000000000000000000CA
:1018C0000000F80703C3C7FC0078701DFF1FE0008D
:1018D0000003FC0703C3C7FC01FE3839FF1FF000FB
:1018E00000039E0F83E7C70001CE3839C01C70008B
:1018F00000070C0F83E7C70003873C79C01C70000A
:101900000007001DC3E7C70003871C71C01C7000DF
:1019100000073E1DC3A5C7F803871C71FE1FE0002A
:1019200000073E3DE3BDC7F803871EF1FE1FC00060
:1019300000070E38E3BDC70003870EE1C01CE000BE
:1019400000070E3FE3BDC70003870EE1C01CE000A7
:1019500000039E7FF399C70001CE07C1C01C700031
:101960000003FE707399C7FC01FE07C1FF1C7000E5
:101970000000F8E03B99C7FC007807C1FF1C380065
:101980000000000000000000000000000000000057
:101990000000000000000000000000000000000047
:1019A0000000000000000000000000000000000037
:1019B0000000000000000000000000000000000027
:101CA0000000000000000200000100000000000031
:101CB0000000000002939305383982000000000004
:101CC0000000000002921205201900000000000030
:101CD00000000000039092050829000000000000A9
:101CE0000000000001139307383D8200000000004F
:101CF00000000000000000000000000000000000E4
:101D000000000000000000000000000000000000D3
:101D100000000000000000000000000000000000C3
:101D200000000000000000000000000000000000B3
:101D300000000000000000000000000000000000A3
:101D40000000000000000000000000000000000093
:101D50000000000000000080000000000000000003
:101D600000000484848394CCE70739F83F280000FE
:101D70000000169696821488958425682D28000008
:101D800000001B1B1B021C889484250821380000BE
:101D900000000909091388C8E4A7390921100000C7
:101DA000000000000000080000000000001000001B
:101DB0000000000000000000000000000000000023
:101DC0000000000000000000000000000000000013
:101DD0000000000000000000000000000000000003
:101DE00000000000000000000000000000000000F3
:101DF00000000000000000000000000000000000E3
:101E000000000000000000000000000000000000D2
:101E100000000000000000000000000000000000C2
:101E200000000000000000000000000000000000B2
:101E300000000000000000000000000000000000A2
:101E40000000000000000000000000000000000092
:101E50000000000000000000000000000000000082
:101E60000000000000000000000000000000000072
:101E70000000000000000000000000000000000062
:101E80000000000000000000000000000000000052
:101E90000000000000000000000000000000000042
:101EA0000000000000000000000000000000000032
:101EB0000000000000000000000000000000000022
:101EC0000000000000000000000000000000000012
:101ED0000000000000000000000000000000000002
:101EE00000000000000000000000000000000000F2
:101EF00000000000000000000000000000000000E2
:101F000000000000000000000000000000000000D1
:101F100000000000000000000000000000000000C1
:101F200000000000000000000000000000000000B1
:081F300000183C7E7E3C180005
:081F3800006A0EAEA2EF0FF0EB
:101F40000E6C001E09AEA7EF0FF0096C001ED5EC59
:101F500010F009BEB1EF0FF000AE000C096C056C7B
:101F6000000C00BEAEEF0FF00188FF0C006A0EAE51
:101F7000BFEF0FF00D6C0E1EE86A0E22001E09AEB8
:101F8000C7EF0FF0086C091EE86A0922001EA1ECD9
:101F900010F009BED7EF0FF000AE000C086C091E60
:101FA000E86A0922046C051EE86A0522000C00BEDE
:101FB000CEEF0FF00188FF0C006AE86A0EAEE9EF81
:101FC0000FF00B6C0C1E0D1E0E1E0C220D220E228D
:101FD000001E09AEF4EF0FF0066C071E081E091E66
:101FE000072208220922001E7DEC10F009BE0BEF2B
:101FF00010F000AE000C066C071E081E091EE86AF1
:10200000072208220922026C031E041E051E032259
:1020100004220522000C00BEFBEF0FF00188FF0C2C
:1020200008C012F008500D02F4CF07F0F3CF06F00D
:1020300009500E02F4CF09F0F3CF08F00D02F3506F
:102040000726F4500822E86A092212500E02F350C3
:0C2050000726F4500822E86A0922000C60
:04205C00060EF66E08
:10206000000EF76E000EF86E00010900F550F86FD3
:102070000900F550F96F03E1F86701D03DD0090080
:10208000F550F36F0900F550F46F0900F550F56F46
:1020900009000900F550E96E0900F550EA6E0900E3
:1020A00009000900F550F66F0900F550F76F0900B7
:1020B0000900F6CFFAF0F7CFFBF0F8CFFCF0F3C051
:1020C000F6FFF4C0F7FFF5C0F8FF0001F65302E198
:1020D000F75307E00900F550EE6EF607F8E2F70750
:1020E000F9D7FAC0F6FFFBC0F7FFFCC0F8FF00010C
:0A20F000F807000EF95BBFD71200DD
:0620FA00056A046A036A96
:10210000026A200EE76ED890063607360836093682
:1021100002360336043605360B50025C0C50035869
:102120000D5004580E50055809E30B50025E0C5038
:10213000035A0D50045A0E50055A062AE72EE4D7CA
:0221400012008B
:0E214200056A046A100EE76ED890083609365A
:10215000043605360D50045C0E50055805E30D504D
:0E216000045E0E50055A082AE72EF0D7120032
:02216E00000E61
:10217000F36E00EE00F0060E01D81200EA6002D005
:0E218000EE6AFCD7F350E9601200EE6AFCD75D
:02218E0015EE4C
:1021900000F025EE00F0F86A019C2EEC10F0E3EC64
:0A21A00010F00AEC00F0FBD712006B
:0621AA00056A080EE76E55
:1021B000D890093605360E50055C02E3056E092AF3
:0621C000E72EF7D7120024
:0221C600120005
:0821C800F4010000000000001A
:1021D00000000000000000000000000000000000FF
:1021E000000074657374696E673000202043414CB1
:1021F0004942524154452E2E2E20200020204C458D
:102200005420495420464C4154200020414E442043
:1022100050524553532053573120004652454553A1
:10222000504143452020202020200046524943545D
:0B223000494F4E2020202020202000DD
:020000040030CA
:0100010006F8
:010002000DF0
:010003000EEE
:0100050000FA
:010006008178
:00000001FF
